:020000040800F2
:10B000001007002045B100084DB100084FB10008FD
:10B0100051B1000853B1000855B10008000000000C
:10B0200000000000000000000000000057B1000810
:10B0300059B10008000000005BB10008C1BD000864
:10B040005FB100085FB100085FB100085FB10008A0
:10B050005FB100085FB10008C3B6000817B7000869
:10B060001DB7000823B7000829B70008CDB40008B1
:10B07000E5B400085FB100085FB100085FB10008E7
:10B080005FB100085FB100085FB100085FB1000860
:10B090005FB100085FB100085FB100082FB700087A
:10B0A0005FB100085FB100085FB100085FB1000840
:10B0B0005FB1000815BE00085FB100085FB100086D
:10B0C0005FB100085FB100085FB100085FB1000820
:10B0D0005FB10008A1D400085FB10008F9D40008EE
:10B0E000C9B600085FB100085FB100085FB1000891
:10B0F0005FB100085FB100085FB100085FB10008F0
:10B100005FB100085FB100085FB100085FB10008DF
:10B1100089C20008E1C200085FB100085FB1000801
:10B120005FB100085FB100085FB100085FB10008BF
:10B13000DFF80CD000F0B0F8004800472DD7000829
:10B14000100700200648804706480047FEE7FEE754
:10B15000FEE7FEE7FEE7FEE7FEE7FEE7FEE7FEE7C7
:10B16000C5BD000831B1000830B480EA010202F028
:10B17000004530F0004221F0004013D090B1C30DE3
:10B18000D40DC2F31601C0F31600E41A41F4000115
:10B1900040F400027D34914201D3641C00E0490078
:10B1A000002C02DA30BC002070474FF4000000236E
:10B1B000914201D3891A034340084FEA4101F7D174
:10B1C00051B1914202D14FF0004105E002D24FF05F
:10B1D000010101E06FF0010103EBC450284430BCD1
:10B1E00000F022B8C10F80EAE0700844CA07962335
:10B1F000002100F022B800F0004220F00040C10D14
:10B20000C0F3160040F400007F2901DA00207047E7
:10B21000962903DCC1F19601C84001E096398840C7
:10B22000002AF4D0404270470029A8BF7047401C54
:10B23000490008BF20F00100704710B4B0FA80FC4C
:10B2400000FA0CF050EA010404BF10BC704749B189
:10B25000CCF1200421FA04F411FA0CF118BF0121F9
:10B2600021430843A3EB0C01CB1D4FEA00614FEAD9
:10B27000102042BF002010BC704700EBC3501044A8
:10B280000029A4BF10BC7047401C490008BF20F033
:10B29000010010BC70470000064C074D06E0E06856
:10B2A00040F0010394E8070098471034AC42F6D30D
:10B2B000FFF742FF78D9000898D900080029816873
:10B2C00002D041F0010101E021F0010181607047ED
:10B2D0000029816802D041F4807101E021F480717D
:10B2E00081607047014600208968490700D5012028
:10B2F0007047014600208968090700D50120704782
:10B3000010B542680E4B0C791A400B6842EA0422D1
:10B310001343436083680B4A1340D1E9024222433E
:10B320004C7943EA44031A438260C26A097C22F4DE
:10B330007002491EC9B242EA0151C16210BD00004B
:10B34000FFFEF0FFFDF7F1FF70B5072409290AD9C8
:10B35000C568A1F10A0606EB4606B440A543B34012
:10B360001D43C56007E0056901EB4106B440A543F4
:10B37000B3401D4305611F23072A09D2446B521EA7
:10B3800002EB820293409C4391400C43446370BDA6
:10B390000D2A09D2046BD21F02EB820293409C4318
:10B3A00091400C43046370BDC46A0D3A02EB820203
:10B3B00093409C4391400C43C46270BD816841F04E
:10B3C0000801816070470029816802D041F4A00122
:10B3D00001E021F4A00181607047816841F004011F
:10B3E0008160704770B5234900220B460D79032414
:10B3F000DB78052D09D2DFE805F003090E121D00E8
:10B40000FF2801D1012004E0CA7070BDFF2808D1D7
:10B410000220087170BD20B9CA700C7170BD03287C
:10B4200001D00A71F0E7DB1C8C71CB70042008712D
:10B430004A7170BD8E790F4D4C793435761EB44209
:10B4400006DA28551844C87004F101044C7170BD27
:10B45000FDD16FEA0303DBB2CB70834206D12878BB
:10B4600020B96878C871086B401C0863CA704A71BB
:10B470000A7170BDEC00002030B5104842780178A8
:10B480008A421AD00E4A136843F480431360C1EB1A
:10B49000C10202EB42040B4B0B4AE5186D1C95628E
:10B4A0001B5D1362D36943F00103D361491CC9B228
:10B4B0000170142901D10021017030BDC3000020AA
:10B4C0000C180140480100200000024010B5022085
:10B4D00000F0AAF8002804D0BDE81040012000F0D8
:10B4E00019B810BD094810B5016889060DD510219D
:10B4F0004160C16921F00101C161642001F0C5FF13
:10B500000348016821F48041016010BD0000024041
:10B510000C180140C10002D5024908607047024979
:10B52000486070470404024000000240002901689E
:10B5300002D041F0010102E04FF6FE7211400160BD
:10B540007047000001684FF6FE7211400160002153
:10B55000016041608160C1603149314A08399042DF
:10B5600003D1486840F00F0006E02D4A14329042A3
:10B5700004D1486840F0F00048607047284A2832FB
:10B58000904203D1486840F47060F5E7244A3C32A9
:10B59000904203D1486840F47040EDE7204A5032B1
:10B5A000904203D1486840F47020E5E71C4A6432B9
:10B5B000904203D1486840F47000DDE7184A7832C1
:10B5C000904203D1486840F07060D5E7154A111FDA
:10B5D000904203D1086840F00F0006E0114A14328F
:10B5E000904204D1086840F0F000086070470D4AAE
:10B5F0002832904203D1086840F47060F5E7094AA8
:10B600003C32904203D1086840F47040EDE7054AAF
:10B6100050329042EAD1086840F47020E5E700001B
:10B62000080002400804024001460020CA0001D57B
:10B63000034A00E0034A12680A4200D00120704722
:10B640000004024000000240002A026801D00A43C0
:10B6500000E08A430260704730B5036847F6F07235
:10B6600093430C6A8A682243D1E904452C43224360
:10B670008C692243CC6922434C6A22438C6A224360
:10B680001A430260CA6842600A6882604968C16001
:10B6900030BD4FF4FA5206E0401E80B20021491C32
:10B6A00089B29142FBD30028F6D1704706E0401ED4
:10B6B00080B20021491C89B20829FBD30028F6D1A9
:10B6C0007047012000F068B810B54FF48064204640
:10B6D00000F052F8C8B96400204600F04DF8A0B957
:10B6E0006400204600F048F878B96400204600F075
:10B6F00043F850B96400204600F03EF828B96400D1
:10B70000204600F039F8002804D02046BDE810405B
:10B7100000F042B810BD022000F03EB8042000F056
:10B720003BB8082000F038B8102000F035B810B54C
:10B73000202000F021F808B1202018E0402000F07F
:10B740001BF808B1402012E0802000F015F808B185
:10B7500080200CE04FF48074204600F00DF828B9EA
:10B760006400204600F008F8002804D02046BDE818
:10B77000104000F011B810BD064A014600201268C2
:10B78000044B0A4014331B680B4202D0002A00D03D
:10B79000012070470004014010B5044603480168C9
:10B7A00009B1204688470248046010BDBC00002053
:10B7B000140401402DE9F04140F668354FF4436729
:10B7C00040F2DC56012000F0F1FD194C206002200F
:10B7D00000F0ECFD6060032000F0E8FDA06021684F
:10B7E000A94205DD6268BA4202DD0020BDE8F081B1
:10B7F000A94204DA6268BA4201DD0120F6E7A942F3
:10B8000004DD6268BA4201DA0220EFE7A9420BDAEE
:10B810006168B94208DAB04202DD4FF00400E5E7A2
:10B82000E4DA4FF00300E1E74FF00500DEE7000047
:10B830000000002010B5072000F0ACFD0D4CA06109
:10B84000082000F0A7FDE0610E2000F0A3FD60627B
:10B850000F2000F09FFDA062A06928B1E06928B127
:10B86000606A28B1002010BD012010BD022010BD6B
:10B87000032010BD0000002070B5042000F08AFDF8
:10B88000284CE060052000F085FD2061062000F0D6
:10B8900081FD6061072000F07DFDA061082000F0BF
:10B8A00079FDE061092000F075FD2062D4E9031301
:10B8B000656941EA03022A4307D1A269012A04D13A
:10B8C000E269012A01D1012805D0A66941EA0502F1
:10B8D000324302D008E0002070BD012B04D1E269A0
:10B8E000012A01D10128F7D0E26952EA00040ED002
:10B8F00040EA01041C430CD0114319430BD02843E8
:10B9000030430AD02A43324309D0072070BD0220B9
:10B9100070BD032070BD042070BD052070BD0620E1
:10B9200070BD00000000002010B58A0721F003045C
:10B930000649130F21440F228C689A4094438C606F
:10B940008A68984002438A6010BD000000000140F0
:10B95000F0B5CA78002502F00F03D20601D58A7827
:10B9600013430A784FF00F0E12F0FF0F4FF0010251
:10B970001CD004680F8802FA05F63740B74211D18F
:10B980004FEA850C0EFA0CF724EA070703FA0CF4C9
:10B990003C43CF78282F02D0482F02D002E04661E6
:10B9A00000E006616D1C082DE4D304600C88FF2CB8
:10B9B0001ED944685FF0000606F1080702FA07F591
:10B9C0000F882F40AF420FD14FEA860C0EFA0CF7CA
:10B9D000BC4303FA0CF73C43CF78282F00D14561D4
:10B9E000CF78482F00D10561761C082EE4D344603F
:10B9F000F0BD0000F0B5144C002801DAE36900E066
:10BA00006368420D120185B2C0F301579540C0F33F
:10BA10000346032F05D0C2020AD50322B240934346
:10BA200007E023F07062636823F07063636002E0F4
:10BA3000AB4343F0706201B12A43002801DAE261AE
:10BA4000F0BD6260F0BD0000000001404161704740
:10BA500070B5154A0E464FF480740146146000BF5D
:10BA600000BF00BF4FF40070106000BF00BF00BFF8
:10BA70004FF4006010604310136000BF00BF00BFB0
:10BA8000094D2D1F286000BF00BF00BF084600F011
:10BA900025F900BF00BF00BF304600F01FF900BF0E
:10BAA00000BF00BF2C6070BD1414014030B51149B7
:10BAB0004FF480750D6000BF00BF00BF0D4C4FF408
:10BAC0000072241F226000BF00BF00BF4FF400625D
:10BAD0000A6053100B6000BF00BF00BF226000BFB0
:10BAE00000BF00BF00F0FAF800BF00BF00BF256034
:10BAF00030BD00001414014008B50121102000F0F1
:10BB00008DF80121202000F089F80D494FF4807054
:10BB1000086010208DF8030003208DF80200C0207B
:10BB2000ADF8000069460748FFF712FF4FF4706058
:10BB3000ADF80000024869461038FFF709FF08BD5C
:10BB4000101401400010014070B50F23C478017833
:10BB50000122F4B1144C2468457804F4E064C4F57F
:10BB6000E064240AC4F10406E3408478B5401C4034
:10BB70002C4301F1E021230181F80034007800F02A
:10BB80001F018A404009800000F1E020C0F8002138
:10BB900070BD01F01F0082404809800000F1E020E4
:10BBA000C0F8802170BD00000CED00E002490843A0
:10BBB00002490860704700000000FA050CED00E043
:10BBC000024A1140014302480160704780FFFF1F95
:10BBD00008ED00E0044A0029516901D0014300E06A
:10BBE000814351617047000000100240044A00295F
:10BBF000D16901D0014300E08143D1617047000069
:10BC000000100240044A0029116901D0014300E0FC
:10BC1000814311617047000000100240044A00296E
:10BC2000916901D0014300E08143916170470000B8
:10BC300000100240044A0029D16801D0014300E00D
:10BC40008143D160704700000010024030B51F49A9
:10BC50004A6812F00C031E4A03D0042B01D0082BB3
:10BC600021D002604A680F231A4C03EA1212A35C27
:10BC70000268DA4042604B68072505EA1323E35C5B
:10BC800022FA03F383604B6805EAD323E35CDA40CE
:10BC9000C2604968032303EA9131231F595CB2FB58
:10BCA000F1F1016130BD4A684B6802F470124FF047
:10BCB000020413F4803F04EB924202D04B689B03D2
:10BCC00001D5054B00E0024B5A43CAE70010024081
:10BCD00000127A005C00002000093D0070B50D4B99
:10BCE00000211C15DA141D1F1A60060601D52C60F0
:10BCF00000E01C6000BF00BF00BF2A604006000ECD
:10BD000000BF00BF00BF491CC9B20829ECD32A609C
:10BD10002C6070BD141401400CB50021264801911F
:10BD20000091026842F4803202604FF4A06302681E
:10BD300002F400320092019A521C0192009A12B948
:10BD4000019A9A42F3D10268920333D501210091FE
:10BD50001A490A6842F010020A600A6822F00302D7
:10BD60000A600A6842F002020A6041684160416864
:10BD70004160416841F480614160416821F47C1177
:10BD80004160416841F4E8114160016841F080710F
:10BD9000016001688901FCD5416821F0030141601F
:10BDA000416841F0020141604168C1F3810102290B
:10BDB000FAD10CBD00910CBD0010024000200240E1
:10BDC000FFF75ABB0F4810B5016841F0010101604F
:10BDD00041680D4A1140416001680C4A1140016000
:10BDE000016821F480210160416821F4FE01416075
:10BDF0004FF41F018160FFF78FFF05494FF000608E
:10BE0000086010BD001002400000FFF8FFFFF6FEC2
:10BE100008ED00E001F02CB8C94301827047002909
:10BE2000018802D041F0010101E021F0010101800F
:10BE30007047002930F8441F02D041F4004101E06E
:10BE4000C1F30E01018070474B4910B5884202D101
:10BE50000121C41486E0B0F1804F09D047498842DF
:10BE60000DD101210220FFF7CDFE0021022064E068
:10BE700001210846FFF7C6FE002101205DE0404990
:10BE8000884206D101210420FFF7BCFE00210420D6
:10BE900053E03C49884206D101210820FFF7B2FE59
:10BEA0000021082049E03849884206D101211020AC
:10BEB000FFF7A8FE002110203FE03449884206D158
:10BEC00001212020FFF79EFE0021202035E030498F
:10BED000884202D10121441444E02E49884202D113
:10BEE0000121CC043EE02C49884202D101210C05FD
:10BEF00038E02A49884202D101214C0532E0284924
:10BF0000884206D101214020FFF77CFE002140201D
:10BF100013E02449884206D101218020FFF772FEF8
:10BF20000021802009E0204988420AD1841501219E
:10BF30002046FFF767FE00212046BDE81040FFF7CE
:10BF400061BE1A49884202D101210C040AE0184955
:10BF5000884202D101214C0404E0164988420AD1EA
:10BF600001218C042046FFF765FE2046BDE8104005
:10BF70000021FFF75FBE10BD002C0140000400400F
:10BF800000080040000C0040001000400014004079
:10BF900000340140004C0140005001400054014079
:10BFA00000180040001C00400020004000400140FC
:10BFB000004401400048014002460020138A928953
:10BFC0000B4202EA010202D0002A00D00120704791
:10BFD000002A828901D00A4300E08A4382817047A7
:10BFE00030B5028C22F001020284028C8388048B1B
:10BFF00022F0020224F073050C882C430D891543AE
:10C000004A882A43114DA8420BD0114DA84208D0AE
:10C01000104DA84205D0104DA84202D00F4DA842A5
:10C020000DD122F008054A8923F440732A4322F0F7
:10C0300004058A882A438D891D43CB892B4383803D
:10C040000483C9888186028430BD0000002C014031
:10C0500000340140004001400044014000480140DC
:10C0600070B5028C22F010020284028C8488038B4B
:10C070000D8823F4E6464FF6FF7303EA05253543A2
:10C080000E8922F0200203EA061616434A8803EAC4
:10C0900002123243104EB04202D0104EB04215D1BF
:10C0A00022F080064A8924F4406403EA02123243F3
:10C0B00022F040068A8803EA021232438E8903EA9C
:10C0C00086062643CC8903EA8404344384800583AE
:10C0D000C9880187028470BD002C014000340140F2
:10C0E00070B5028C22F480720284028C8488838B67
:10C0F0000D8823F073031D4322F400730E894FF65D
:10C10000FF7202EA06261E434B8802EA03233343EA
:10C11000104EB04202D0104EB04215D123F400664A
:10C120004B8924F4405402EA0323334323F480660A
:10C130008B8802EA032333438E8902EA06162643DC
:10C14000CC8902EA0414344384808583C9888187BA
:10C15000038470BD002C01400034014070B5028C96
:10C1600022F480520284048C8288838B0D8823F40D
:10C17000E6464FF6FF7303EA0525354324F40056DF
:10C180000C8903EA043434434E8803EA0636264316
:10C19000094CA04202D0094CA04205D122F48044AF
:10C1A0008A8903EA8212224382808583C988A0F8A3
:10C1B0004010068470BD0000002C01400034014096
:10C1C00030B502881B4B1C4C98420DD0A0420BD0BE
:10C1D000B0F1804F08D0194DA84205D0184DA842A3
:10C1E00002D0184DA84203D122F070054A882A4394
:10C1F000154DA84206D0154DA84203D022F4407533
:10C20000CA882A4302808A8882850A8802859842E1
:10C210000AD0A04208D00E4A904205D00D4A904262
:10C2200002D00D4A904201D1097A01860121818212
:10C2300030BD0000002C01400034014000040040EB
:10C2400000080040000C00400010004000140040B6
:10C2500000400140004401400048014010B501F099
:10C2600033FA084CE06240B1012805D1FFF7A2FA89
:10C270002063FFF7DFFA606310BDFFF7FDFAA063EC
:10C2800010BD00000000002070B5134C40F2255591
:10C290002946204601F087F901280CD1294620467D
:10C2A00001F053F90D4D286828B1204601F008FA35
:10C2B0002968C0B288470821204601F06DF901289D
:10C2C00008D10821204601F03DF92046BDE8704024
:10C2D00001F0F6B970BD0000004C00409400002051
:10C2E00070B5134C40F225552946204601F05BF904
:10C2F00001280CD12946204601F027F90D4D286868
:10C3000028B1204601F0DCF92968C0B2884708212D
:10C31000204601F041F9012808D10821204601F00A
:10C3200011F92046BDE8704001F0CAB970BD0000A7
:10C3300000500040A000002010B501218CB008463C
:10C34000FFF748FC104C2046FFF7FCF80F48009020
:10C350000F480021CDE901011020CDE90301802023
:10C360000590400006908000079020200890000271
:10C37000CDE9090169462046FFF76EF90121204603
:10C38000FFF7D4F80CB010BD080002404C24014067
:10C3900028010020044931F81000AA2801D9012001
:10C3A000704700207047000028010020102803D2A9
:10C3B000024931F810007047002070472801002022
:10C3C00010B586B0FFF7B8FF01214802FFF726FC41
:10C3D00001210420FFF722FC01210820FFF71EFCA9
:10C3E00001211020FFF71AFC00248DF81740FF20D0
:10C3F000ADF8140005A95048FFF7AAFA0320ADF8DC
:10C40000140005A94D48FFF7A3FA3F20ADF814002A
:10C4100005A94B48FFF79CFA01208DF804008DF820
:10C4200005004FF46020CDE9020400941020454C33
:10C430008DF8100069462046FEF762FF07230122AF
:10C4400009212046FEF780FF07230222082120460B
:10C45000FEF77AFF072303220F212046FEF774FF21
:10C46000072304220E212046FEF76EFF0723052234
:10C4700019462046FEF768FF06220723114620468C
:10C48000FEF762FF07231A4605212046FEF75CFFF0
:10C490000723082204212046FEF756FF072309221E
:10C4A00003212046FEF750FF07230A2202212046DF
:10C4B000FEF74AFF07230B2201212046FEF744FF27
:10C4C00007230C2200212046FEF73EFF0D22072302
:10C4D00011462046FEF738FF07230E220C21204686
:10C4E000FEF732FF07230F220B212046FEF72CFF19
:10C4F000072310220A212046FEF726FF01212046AD
:10C50000FEF7E6FE01212046FEF7D8FE2046FEF7A4
:10C5100055FF2046FEF7EDFE0028FAD12046FEF733
:10C520005CFF2046FEF7DEFE0028FAD101212046FE
:10C53000FEF749FF06B010BD00080140000C0140A5
:10C54000001001400024014008B501212020FFF720
:10C5500065FB0A48016821F0800101608020ADF888
:10C56000000002208DF8020010208DF8030003481F
:10C5700069460C38FFF7ECF908BD00000C140140C7
:10C580001CB54FF48063994213D29A4211D21E23F4
:10C590008DF800308DF80110090A8DF80210110A8B
:10C5A0008DF803208DF804106B460322072100F05C
:10C5B00013FF1CBD1CB5012922D806228DF80020CE
:10C5C000002211B101290BD012E08DF801208DF865
:10C5D0000220FF218DF8031003218DF8041007E0DD
:10C5E0008DF801208DF802208DF803208DF80420AD
:10C5F0006B460322072100F0EFFE1E2000F038FFFB
:10C600001CBD00001CB501F2FF3240F2FF739A42DC
:10C610001BD2002902DC00BFC1F100014FF0200253
:10C6200089B28DF800208DF801104FEA11218DF8A4
:10C63000021003DA41F004018DF802106B464FF04E
:10C6400003024FF0050100F0C7FE1CBDF8B5494CD0
:10C650002088400403D50E210320FFF765F92088C8
:10C66000800403D50D210320FFF75EF92088000424
:10C6700003D50F210320FFF757F92088C00403D505
:10C680000C210320FFF750F904258DF80350207882
:10C69000394E00060AD58020ADF8000069463046C4
:10C6A000FFF756F907210020FFF73EF920784006F2
:10C6B0000AD54020ADF8000069463046FFF748F93A
:10C6C00006210020FFF730F9207880060AD52020C7
:10C6D000ADF8000069463046FFF73AF90521002021
:10C6E000FFF722F92078C0060AD51020ADF8000027
:10C6F00069463046FFF72CF904210020FFF714F9B2
:10C7000020781E4E00070AD50820ADF800006946C3
:10C710003046FFF71DF903210220FFF705F92078C5
:10C72000400709D5ADF8005069463046FFF710F9CB
:10C7300002210846FFF7F8F8207880070AD5022082
:10C74000ADF8000069463046FFF702F901210220EA
:10C75000FFF7EAF82078C0070AD00120ADF8000002
:10C7600069463046FFF7F4F800210220FFF7DCF8B5
:10C77000F8BD0000B8000020000801400010014092
:10C7800007484FF4804101604900016005480121DC
:10C7900001600221016008210160102101607047E1
:10C7A000100801401014014008B501216520FFF771
:10C7B00035FA01211048FFF71DF9FFF7E1FF1020BE
:10C7C0008DF8030003208DF802008003ADF800000F
:10C7D00069460A48FFF7BCF81B20ADF8000069461F
:10C7E0000748FFF7B5F84FF44050ADF80000694630
:10C7F0000448FFF7ADF808BD000430000008014010
:10C800000014014000180140FFF7CEBF38B50121E8
:10C810002020FFF703FA4FF47040ADF800004820E5
:10C820008DF8030069460D48FFF792F80C4C04217F
:10C830002046FFF70BF901214020FFF7EFF9042014
:10C84000ADF8000002208DF8020010208DF80300E2
:10C8500069462046FFF77CF838BD0000001401400F
:10C860000018014000B5002000F008F8024800213F
:10C870000170417000BD0000C0000020F0B5074607
:10C8800040210320FFF7E4F800244FF4AF760021A5
:10C890000520FFF7DDF821460620FFF7D9F800252F
:10C8A0003846FFF703F93046FEF700FF6D1CEDB286
:10C8B000102DF5D3641CE4B2402CE8D3F0BD000089
:10C8C00010B5FFF719F93D4C402363616420FEF772
:10C8D000E0FE23616420FEF7DCFE00210846FFF73E
:10C8E000B7F800210120FFF7B3F87B210220FFF702
:10C8F000AFF800210320FFF7ABF800210420FFF779
:10C90000A7F800210520FFF7A3F800210620FFF774
:10C910009FF800210720FFF79BF800210820FFF770
:10C9200097F800210920FFF793F800210A20FFF76C
:10C930008FF800210B20FFF78BF800210C20FFF768
:10C9400087F800210D20FFF783F800210E20FFF764
:10C950007FF800210F20FFF77BF800211320FFF75D
:10C9600077F800211420FFF773F800211520FFF756
:10C970006FF800211620FFF76BF800211720FFF752
:10C9800067F800211820FFF763F82C211020FFF72B
:10C990005FF824211220FFF75BF8F8211120FFF740
:10C9A00057F802210120FFF753F8002000F067F844
:10C9B000FFF758FF8020206110BD000000100140EB
:10C9C0002DE9FC4700258946824600950195002AFD
:10C9D00001DA524201250624DFF84C800A276E4610
:10C9E00092FBF7F007FB1020303030551046FEF771
:10C9F000F9FB4146FEF7B8FBFEF7FDFB020003D052
:10CA0000641E64B2002CEBDA1DB1641E64B22D20EA
:10CA1000305532194946504600F008F8C4F1070075
:10CA2000C0B2BDE8FC87000000002041F0B5002442
:10CA300015460E460746032901D8102F01D90020BC
:10CA4000F0BD42210320FFF703F839460520FEF729
:10CA5000FFFF3007010E0620FEF7FAFF4FF4AF7616
:10CA600008E000BFFFF722F83046FEF71FFE641C07
:10CA7000E4B26D1C28780028F4D12046F0BD08B13E
:10CA8000FB2100E0F8211120FEF7E2BF2DE9F84379
:10CA90004FF430414FF00060FFF792F84FF4C06060
:10CAA000FFF784F85C484FF47A7101250068B0FB09
:10CAB000F1F0B0F1807F7DD220F07F414FF0E02097
:10CAC000491E4161554AF02182F8141D00268661F5
:10CAD000072707618DF80160514C8DF802608DF8D1
:10CAE000035020784FF00608C00704D08DF800806E
:10CAF0006846FFF729F82078800704D58DF8007084
:10CB00006846FFF721F82078400705D508208DF802
:10CB100000006846FFF718F82078000705D50920BF
:10CB20008DF800006846FFF70FF82078C00605D59D
:10CB30000A208DF800006846FFF706F8208810F4F8
:10CB4000787F05D017208DF800006846FEF7FCFFBF
:10CB5000208810F47C4F05D028208DF8000068460E
:10CB6000FEF7F2FF1C208DF800008DF801508DF8C3
:10CB700002608DF803506846FEF7E6FF1D208DF831
:10CB8000000002208DF801008DF802608DF803503E
:10CB90006846FEF7D9FF2348007870B125208DF84C
:10CBA000000004208DF801008DF802608DF803501C
:10CBB000684600E02FE0FEF7C7FF1B48007860B131
:10CBC00034208DF8000005208DF801008DF80260FA
:10CBD0008DF803506846FEF7B7FF1448007860B13F
:10CBE00035208DF8000003208DF801008DF80260DB
:10CBF0008DF803506846FEF7A7FF0C208DF8000063
:10CC00008DF801808DF802608DF803506846FEF7BC
:10CC10009BFFBDE8F883FEE76C0000200FE000E01A
:10CC2000B8000020800000208C0000209800002028
:10CC30002DE9FF4101210820FEF7F0FF012104202A
:10CC4000FEF7D4FF22484021016080210160851554
:10CC500005604115016018208DF80F0003208DF844
:10CC60000E004FF47070ADF80C00194803A910388D
:10CC7000FEF76EFE174F3846FFF7E6F8002445F63C
:10CC8000C0500226ADF80400ADF80060ADF80240D7
:10CC9000ADF806408DF8084069463846FFF790FA2F
:10CCA0000D486021018001214180848042F6E061CD
:10CCB000C180068144818581C48101213846FFF706
:10CCC000AEF801213846FFF7B4F8BDE8FF81000057
:10CCD000100C014000080040FC02002010B5FFF7D6
:10CCE00071F8FFF7D3FEFFF791FDFFF769FB00F046
:10CCF000FFF9FFF7E5FDFFF787FDFFF799FFFFF766
:10CD0000A5FC00F023F8BDE81040FFF71DBC0000B3
:10CD1000032814D8002912D0094B01221A54094AB9
:10CD200042F82010084A22F81010103222F8101091
:10CD3000083A090C22F81010103222F8101070472F
:10CD4000A4000020EC020020CC0000202DE9F041DE
:10CD5000444C88B0207830B9607820B9A07810B9F8
:10CD6000E07800287AD001210220FEF73FFF3E4FF5
:10CD70003846FFF769F847200025ADF810004FF658
:10CD8000FF76ADF81460ADF81250ADF816508DF87E
:10CD9000185004A93846FFF713FAADF80850334D80
:10CDA0002020ADF8000028684FF48038404500D3BB
:10CDB0003046ADF80600207818B169463846FFF7CE
:10CDC0000FF96868404500D33046ADF8060060783A
:10CDD00018B169463846FFF743F9A868404500D3C3
:10CDE0003046ADF80600A07818B169463846FFF71E
:10CDF00077F9E868404500D20646ADF80660E0786D
:10CE000018B169463846FFF7A9F91F213846FFF7E0
:10CE100003F8207820B1012202213846FFF7D8F824
:10CE2000607820B1012204213846FFF7D1F8A078BC
:10CE300020B1012208213846FFF7CAF8E07820B176
:10CE4000012210213846FFF7C3F801221146384667
:10CE5000FFF7BEF801213846FEF7E1FF08B0BDE854
:10CE6000F0810000A400002000040040EC0200203B
:10CE70002DE9F047734C01212046FFF79DF84FF64E
:10CE8000FF7648B101212046FEF7C6FF6E480168D3
:10CE900031440160BDE8F0870221A2462046FFF739
:10CEA0008BF8DFF8A481002708F1040808F11804C2
:10CEB00008F10809A4F1080560B302215046FEF705
:10CEC000ABFFDFF880A120880AF1340A70B9288806
:10CED000C0B9B8F800002880B9F8000020805B488D
:10CEE000016809B100208847208840B1BAF80010D5
:10CEF0003144AAF800102088401E2080CAE7288804
:10CF00000028C7D0BAF800102A881144AAF80010E7
:10CF10002F80BFE704215046FFF74EF860B304218D
:10CF20005046FEF779FFDFF81CA160880AF1380A45
:10CF300070B96888C0B9B8F802006880B9F8020012
:10CF400060804348016809B101208847608840B18A
:10CF5000BAF800103144AAF800106088401E6080C2
:10CF600098E76888002895D0BAF800106A881144BC
:10CF7000AAF800106F808DE708215046FFF71CF8D3
:10CF800060B308215046FEF747FFDFF8B8A0A0883D
:10CF90000AF13C0A70B9A888C0B9B8F80400A880A2
:10CFA000B9F80400A0802B48016809B10220884725
:10CFB000A08840B1BAF800103144AAF80010A08847
:10CFC000401EA08066E7A888002897D0BAF8001015
:10CFD000AA881144AAF80010AF805BE710215046E0
:10CFE000FEF7EAFF002889D010215046FEF714FF13
:10CFF000DFF850A0E0880AF1400A70B9E888C0B9AB
:10D00000B8F80600E880B9F80600E0801248016828
:10D0100009B103208847E08840B1BAF800103144D4
:10D02000AAF80010E088401EE08033E7E888002876
:10D0300096D0BAF80010EA881144AAF80010EF80E0
:10D0400028E7000000040040C8000020A8000020DD
:10D05000AC000020B0000020B400002000290CD05B
:10D0600038B1012807D0022808D0032805D1044888
:10D0700002E0044800E00448016070470348FBE711
:10D08000B4000020A8000020AC000020B000002068
:10D0900010B501218CB00846FEF79CFD124C2046CD
:10D0A000FEF750FA11480021CDE900011020CDE92A
:10D0B00002018020CDE904108001CDE9081006911D
:10D0C00007910A9169462046FEF7C6FA012202211D
:10D0D0002046FEF7B9FA054801228021001F00F022
:10D0E00053FA0CB010BD00001C0002400448004080
:10D0F0002DE9F04F87B0012144F20500FEF78EFDC7
:10D100004FF40075ADF800500326A34C8DF8026073
:10D110004FF018098DF8039069462046FEF718FC79
:10D120002715ADF800704FF0040A8DF803A069468A
:10D130002046FEF70DFC99480024DFF86482006861
:10D140000190ADF80C400C20ADF80840ADF80E0091
:10D15000ADF81440ADF81850ADF80A40ADF81040E5
:10D16000ADF81640ADF81A4005A9404600F0F3F9B5
:10D1700001A9404600F04EFA0121404600F0FAF9BC
:10D180008848007828B1012240F22551404600F03D
:10D1900029FA0121C804FEF729FD01211120FEF71B
:10D1A0003DFDADF80070BB467F4F8DF80260B04684
:10D1B0008DF8039069463846FEF7CAFBF814ADF8BF
:10D1C000000056468DF803A069463846FEF7C0FBBE
:10D1D0007648DFF8DCA10C2700680190ADF8084024
:10D1E000ADF80C40ADF81440ADF81850ADF80A4059
:10D1F000ADF81040ADF80E70ADF81640ADF81A401D
:10D2000005A9504600F0A7F901A9504600F002FA1E
:10D210000121504600F0AEF96648007828B101229D
:10D2200040F22551504600F0DDF901210805FEF7D6
:10D23000DDFC01213120FEF7F1FC4FF48050ADF808
:10D2400000008DF80280C246C8468DF803906946FA
:10D250005548FEF77DFBADF800608DF80360694628
:10D260005548FEF775FB5548DFF8549105A900684D
:10D270000190ADF80840ADF80C40ADF81440ADF8A1
:10D280001850ADF80A40ADF81040ADF80E70ADF88A
:10D290001640ADF81A40484600F05DF94021484676
:10D2A00000F050F901A9484600F0B4F901214846C0
:10D2B00000F060F94348007828B1012240F225517E
:10D2C000484600F08FF901210820FEF7A7FC012154
:10D2D0004020FEF7A3FC01218804FEF787FCADF88F
:10D2E00000B08DF802A08DF80380DFF8DC8069467D
:10D2F0004046FEF72DFB4FF40060ADF800008DF8BE
:10D30000036069464046FEF723FB3048016821F47C
:10D3100000410160016821F4804101604FF48040C8
:10D32000DFF8A880ADF800001026A8F10C088DF8F1
:10D33000036069464046FEF70BFBF002ADF80000C3
:10D340008DF8036069464046FEF702FB20480190D5
:10D35000ADF80840ADF81440ADF81850ADF80A40EB
:10D36000ADF80C40ADF81040ADF81640ADF81A40DD
:10D37000184CADF80E7005A9204600F0ECF801A994
:10D38000204600F047F90121204600F0F3F8FFF7AE
:10D390007FFE07B0BDE8F08F000801408400002048
:10D3A0000038014080000020001001409000002063
:10D3B000004C00408C000020001401409C00002024
:10D3C0000050004098000020000C01400C18014063
:10D3D00040420F00004800402DE9F04F224D2E78CA
:10D3E0006C78771EBC423CD00EB9132C39D0AB46BA
:10D3F0001E4EC4EBC40505EB450909EB0605FF27E6
:10D400006F70AF70E870297147186A713A44B2467C
:10D41000D7B2C4EBC4060520002206EB46065644EC
:10D42000891E0DE006EB000813F802C088F801C061
:10D4300013F802C0401C6744521C80B2FFB2D2B243
:10D440008A42EFDB0544FB436B70401C0AF809007D
:10D45000641CE0B28BF80100142802D100208BF884
:10D460000100BDE8F08F0000C3000020480100204B
:10D470004FF4FA5206E00021401E00BF491C89B259
:10D480009142FAD30028F6D1704706E00021401EF1
:10D4900000BF491C89B20829FAD30028F6D1704789
:10D4A00070B5134C40F225552946204600F07BF814
:10D4B00001280CD12946204600F047F80D4D286878
:10D4C00028B1204600F0FCF82968C0B2884708213E
:10D4D000204600F061F8012808D10821204600F01C
:10D4E00031F82046BDE8704000F0EAB870BD000099
:10D4F000003801408800002070B5114C40F22555DD
:10D500002946204600F04FF8012809D12946204637
:10D5100000F01BF8204600F0D3F8C0B2FDF762FF20
:10D520000821204600F038F8012808D108212046BB
:10D5300000F008F82046BDE8704000F0C1B870BDAA
:10D5400000480040C943018070470A0A0121914008
:10D55000C9430180704710B5038A4FF2FF021340A0
:10D560000A884C8822438C88C9880C4322431A437A
:10D57000028210BD0029818902D041F4005101E0EE
:10D5800021F4005181817047002A828A01D00A4328
:10D5900000E08A43828270470246002012880A42D5
:10D5A00000D00120704730B501F01F020124002592
:10D5B000C1F3421304FA02F2012B0FD0022B0FD059
:10D5C000838A4FEA11210088134204FA01F400EA29
:10D5D000040001D000B10125284630BD8389F0E761
:10D5E000038AEEE710B5C1F3421301F01F040121D5
:10D5F000A140012B07D0022B07D01430002A02686B
:10D6000005D00A4304E00C30F8E71030F6E78A430F
:10D61000026010BD30B50446008A85B00D464CF658
:10D62000FF710840E98801432182A1894EF6F31079
:10D630000140A8882A8910436A890A431043A081BF
:10D64000A08A4FF6FF410840A9890143A18268469C
:10D65000FEF7FCFA1948844201D1039800E00298D1
:10D66000A189090400EBC00101EB0010296801D574
:10D67000490000E08900B0FBF1F06422B0FBF2F158
:10D6800009010B096FF018056B4300EB8300A389B8
:10D690001D044FF0320306D503EBC000B0FBF2F0DF
:10D6A00000F0070005E003EB0010B0FBF2F000F023
:10D6B0000F000843208105B030BD00000038014054
:10D6C0008088C0F30800704770B50120FEF76EFE39
:10D6D0000D4C20600220FEF769FE60600320FEF71B
:10D6E00065FEA060256840F6FC0340F6F61240F2A5
:10D6F0003E319D4204DB6368934201DB884201DADC
:10D70000002070BD012070BD0000002002E008C8AC
:10D71000121F08C1002AFAD170477047002001E0AB
:10D7200001C1121F002AFBD1704700001421002004
:10D73000FFF7EEFA7A490020FFF790FCFFF7CEFAE8
:10D7400000210320FEF736FF00210620FEF732FFFE
:10D75000DFF8D091734FDFF8CCB1734C09F1320987
:10D760004FF448764FF4FA754FF4C878323F4FF4CF
:10D77000167A00BFFFF776F803210846A26BFFF781
:10D780001FF903210020E26AFFF71AF9032105209F
:10D79000226BFFF715F903210720626BFFF710F9E1
:10D7A000022100202268FFF70BF90221062062689F
:10D7B000FFF706F900210320A268FFF701F9E06AEC
:10D7C00058B30128D6D132464FF4F8710320FEF742
:10D7D000D7FE32464FF400710620FEF7D1FE206BD3
:10D7E000002866D001286CD0022877D0032873D097
:10D7F000042872D00528BDD13946084600F096F8B5
:10D800004FF49670FFF734FE3946504600F08EF81C
:10D810004FEA0800FFF72CFEACE732464FF47C716C
:10D820000320FEF7ADFE324600210620FEF7A8FEDB
:10D83000A06BA8B1012823D002282FD003282FD015
:10D8400004282DD005282ED006282CD0072891D1C9
:10D850003449643140F2262000F068F801202DE0C0
:10D8600030489638014600F061F84046FFF700FE68
:10D870004FF47A70014600F059F840F28A20C9E767
:10D880002946084600F052F82846FFF7F1FD5946B0
:10D8900040F2262000F04AF8A020BBE75946D9E71D
:10D8A0002946084601E04846494600F03FF8284628
:10D8B000B0E74046414600F039F81420FFF7E5FD97
:10D8C00058E73946084600F031F8C820FFF7D0FD88
:10D8D000394650460BE001E015E01AE039460846AB
:10D8E00000F024F8C820FFF7C3FD5146384600F089
:10D8F0001DF84FF49670FFF7BBFD2846294600F04F
:10D9000015F8642086E73946084600F00FF84046CF
:10D9100078E75046514600F009F8C8207AE7000041
:10D920005DC20008DAFDFFFF0000002070B54FF473
:10D930008066104C721ED5436B1CB042C4E91401C2
:10D9400001DB226502E0A84200DC2365B14201DB75
:10D95000626502E0A94200DC636534F8500F01B251
:10D960000120FEF74FFEA088BDE8704001B2022002
:10D97000FEF748BE0000002098D9000800000020F3
:10D98000280100000CD70008C0DA00082801002098
:10D99000E80500001CD7000800000000000000009F
:10D9A0000000000000000000000000000000000077
:10D9B0000000000000000000000000000000000067
:10D9C0000000000000000000000000000000000057
:10D9D0000000000000000000000000000000000047
:10D9E0000000000000000000000000000000000037
:10D9F00002040608000000000102030401020304FF
:10DA00000607080900A24A04000000000000000008
:10DA100001020304060708090000000000C201001B
:10DA20000000000000000000004B000000000000AB
:10DA30000000000000C20100000000000000000023
:10DA400000000000000000000000000000000000D6
:10DA500000000000000000000000000000000000C6
:10DA600000000000000000000000000000000000B6
:10DA700000000000000000000000000000000000A6
:10DA80000000000000000000000000000000000096
:10DA90000000000020030000000000000000000063
:10DAA0000000000000000000000000000000000076
:10DAB0000000000000000000000000000000000066
:040000050800B1310D
:00000001FF
