:020000040800F2
:10B000000007002045B100084DB100084FB100080D
:10B0100051B1000853B1000855B10008000000000C
:10B0200000000000000000000000000057B1000810
:10B0300059B10008000000005BB10008A9BE00087B
:10B040005FB100085FB100085FB100085FB10008A0
:10B050005FB100085FB10008C3B6000817B7000869
:10B060001DB7000823B7000829B70008CDB40008B1
:10B07000E5B400085FB100085FB100085FB10008E7
:10B080005FB100085FB100085FB100085FB1000860
:10B090005FB100085FB100085FB100082FB700087A
:10B0A0005FB100085FB100085FB100085FB1000840
:10B0B0005FB10008FDBE00085FB100085FB1000885
:10B0C0005FB100085FB100085FB100085FB1000820
:10B0D0005FB1000889D500085FB10008E1D500081C
:10B0E000C9B600085FB100085FB100085FB1000891
:10B0F0005FB100085FB100085FB100085FB10008F0
:10B100005FB100085FB100085FB100085FB10008DF
:10B1100071C30008C9C300085FB100085FB100082F
:10B120005FB100085FB100085FB100085FB10008BF
:10B13000DFF80CD000F0B0F800480047D1D7000885
:10B14000000700200648804706480047FEE7FEE764
:10B15000FEE7FEE7FEE7FEE7FEE7FEE7FEE7FEE7C7
:10B16000ADBE000831B1000830B480EA010202F03F
:10B17000004530F0004221F0004013D090B1C30DE3
:10B18000D40DC2F31601C0F31600E41A41F4000115
:10B1900040F400027D34914201D3641C00E0490078
:10B1A000002C02DA30BC002070474FF4000000236E
:10B1B000914201D3891A034340084FEA4101F7D174
:10B1C00051B1914202D14FF0004105E002D24FF05F
:10B1D000010101E06FF0010103EBC450284430BCD1
:10B1E00000F022B8C10F80EAE0700844CA07962335
:10B1F000002100F022B800F0004220F00040C10D14
:10B20000C0F3160040F400007F2901DA00207047E7
:10B21000962903DCC1F19601C84001E096398840C7
:10B22000002AF4D0404270470029A8BF7047401C54
:10B23000490008BF20F00100704710B4B0FA80FC4C
:10B2400000FA0CF050EA010404BF10BC704749B189
:10B25000CCF1200421FA04F411FA0CF118BF0121F9
:10B2600021430843A3EB0C01CB1D4FEA00614FEAD9
:10B27000102042BF002010BC704700EBC3501044A8
:10B280000029A4BF10BC7047401C490008BF20F033
:10B29000010010BC70470000064C074D06E0E06856
:10B2A00040F0010394E8070098471034AC42F6D30D
:10B2B000FFF742FFA0DA0008C0DA00080029816821
:10B2C00002D041F0010101E021F0010181607047ED
:10B2D0000029816802D041F4807101E021F480717D
:10B2E00081607047014600208968490700D5012028
:10B2F0007047014600208968090700D50120704782
:10B3000010B542680E4B0C791A400B6842EA0422D1
:10B310001343436083680B4A1340D1E9024222433E
:10B320004C7943EA44031A438260C26A097C22F4DE
:10B330007002491EC9B242EA0151C16210BD00004B
:10B34000FFFEF0FFFDF7F1FF70B5072409290AD9C8
:10B35000C568A1F10A0606EB4606B440A543B34012
:10B360001D43C56007E0056901EB4106B440A543F4
:10B37000B3401D4305611F23072A09D2446B521EA7
:10B3800002EB820293409C4391400C43446370BDA6
:10B390000D2A09D2046BD21F02EB820293409C4318
:10B3A00091400C43046370BDC46A0D3A02EB820203
:10B3B00093409C4391400C43C46270BD816841F04E
:10B3C0000801816070470029816802D041F4A00122
:10B3D00001E021F4A00181607047816841F004011F
:10B3E0008160704770B5234900220B460D79032414
:10B3F000DB78052D09D2DFE805F003090E121D00E8
:10B40000FF2801D1012004E0CA7070BDFF2808D1D7
:10B410000220087170BD20B9CA700C7170BD03287C
:10B4200001D00A71F0E7DB1C8C71CB70042008712D
:10B430004A7170BD8E790F4D4C793435761EB44209
:10B4400006DA28551844C87004F101044C7170BD27
:10B45000FDD16FEA0303DBB2CB70834206D12878BB
:10B4600020B96878C871086B401C0863CA704A71BB
:10B470000A7170BDE000002030B5104842780178B4
:10B480008A421AD00E4A136843F480431360C1EB1A
:10B49000C10202EB42040B4B0B4AE5186D1C95628E
:10B4A0001B5D1362D36943F00103D361491CC9B228
:10B4B0000170142901D10021017030BDB7000020B6
:10B4C0000C1801403C0100200000024010B5022091
:10B4D00000F0AAF8002804D0BDE81040012000F0D8
:10B4E00019B810BD094810B5016889060DD510219D
:10B4F0004160C16921F00101C161642002F039F8A5
:10B500000348016821F48041016010BD0000024041
:10B510000C180140C10002D5024908607047024979
:10B52000486070470404024000000240002901689E
:10B5300002D041F0010102E04FF6FE7211400160BD
:10B540007047000001684FF6FE7211400160002153
:10B55000016041608160C1603149314A08399042DF
:10B5600003D1486840F00F0006E02D4A14329042A3
:10B5700004D1486840F0F00048607047284A2832FB
:10B58000904203D1486840F47060F5E7244A3C32A9
:10B59000904203D1486840F47040EDE7204A5032B1
:10B5A000904203D1486840F47020E5E71C4A6432B9
:10B5B000904203D1486840F47000DDE7184A7832C1
:10B5C000904203D1486840F07060D5E7154A111FDA
:10B5D000904203D1086840F00F0006E0114A14328F
:10B5E000904204D1086840F0F000086070470D4AAE
:10B5F0002832904203D1086840F47060F5E7094AA8
:10B600003C32904203D1086840F47040EDE7054AAF
:10B6100050329042EAD1086840F47020E5E700001B
:10B62000080002400804024001460020CA0001D57B
:10B63000034A00E0034A12680A4200D00120704722
:10B640000004024000000240002A026801D00A43C0
:10B6500000E08A430260704730B5036847F6F07235
:10B6600093430C6A8A682243D1E904452C43224360
:10B670008C692243CC6922434C6A22438C6A224360
:10B680001A430260CA6842600A6882604968C16001
:10B6900030BD4FF4FA5206E0401E80B20021491C32
:10B6A00089B29142FBD30028F6D1704706E0401ED4
:10B6B00080B20021491C89B20829FBD30028F6D1A9
:10B6C0007047012000F068B810B54FF48064204640
:10B6D00000F052F8C8B96400204600F04DF8A0B957
:10B6E0006400204600F048F878B96400204600F075
:10B6F00043F850B96400204600F03EF828B96400D1
:10B70000204600F039F8002804D02046BDE810405B
:10B7100000F042B810BD022000F03EB8042000F056
:10B720003BB8082000F038B8102000F035B810B54C
:10B73000202000F021F808B1202018E0402000F07F
:10B740001BF808B1402012E0802000F015F808B185
:10B7500080200CE04FF48074204600F00DF828B9EA
:10B760006400204600F008F8002804D02046BDE818
:10B77000104000F011B810BD064A014600201268C2
:10B78000044B0A4014331B680B4202D0002A00D03D
:10B79000012070470004014010B5044603480168C9
:10B7A00009B1204688470248046010BDB00000205F
:10B7B0001404014070B540F6313540F608460120CA
:10B7C00000F068FE1E4C2060022000F063FE606006
:10B7D000032000F05FFEA0602168A94204DD6268DA
:10B7E000B24201DD002070BD4FF4BE63A94206DA0B
:10B7F0006268B24203DD984211DA012070BDA942AD
:10B8000006DD6268B24203DA984208DA022070BDAF
:10B81000A94212DA6268B2420FDA984201DB0420D0
:10B8200070BD40F604304FF43E63814203DD9A421E
:10B8300001DD032070BD052070BD062070BD000035
:10B840000000002010B5042000F024FE264CE0602B
:10B85000072000F01FFEA061082000F01BFEE06141
:10B86000092000F017FE20620A2000F013FE60623B
:10B870000B2000F00FFEA0620C2000F00BFEE06237
:10B880000D2000F007FE2063A2694FF47A718A420E
:10B8900001DA012010BDE3688B4201DA022010BDFD
:10B8A000236A8B4201DA032010BDE3698B4201DA7F
:10B8B000042010BD636A8B4203DA8A4201DD052051
:10B8C00010BDA36A8B4203DA8A4201DD062010BD57
:10B8D000E26A8A4201DA072010BD884201DA0820B4
:10B8E00010BD092010BD00000000002070B504202C
:10B8F00000F0D0FD344CE060052000F0CBFD20616D
:10B90000062000F0C7FD6061072000F0C3FDA061C4
:10B91000082000F0BFFDE061092000F0BBFD2062BF
:10B92000E2684FF47A718A421DDA236965698B42B5
:10B930000BDA8D4217DAA5698D4208DDE3698B4287
:10B9400011DD884216DD002070BD8D420BDAA5693D
:10B950008D4208DA8B4206DDE3698B4203DD8842C3
:10B9600008DD012070BDE3698B4203DA88420DDAFD
:10B97000022070BD884206DA8A4204DA23698B42CB
:10B9800001DA032070BDE3698B4206DA8A4204DAE9
:10B9900022698A4201DA042070BD884207DA6069B0
:10B9A000884204DAA069884201DA052070BD8B4222
:10B9B00007DA6069884204DAA069884201DA062061
:10B9C00070BD072070BD00000000002010B58A0780
:10B9D00021F003040649130F21440F228C689A407A
:10B9E00094438C608A68984002438A6010BD0000CE
:10B9F00000000140F0B5CA78002502F00F03D2061E
:10BA000001D58A7813430A784FF00F0E12F0FF0F1A
:10BA10004FF001021CD004680F8802FA05F6374087
:10BA2000B74211D14FEA850C0EFA0CF724EA07074A
:10BA300003FA0CF43C43CF78282F02D0482F02D0D1
:10BA400002E0466100E006616D1C082DE4D304604D
:10BA50000C88FF2C1ED944685FF0000606F1080729
:10BA600002FA07F50F882F40AF420FD14FEA860C3C
:10BA70000EFA0CF7BC4303FA0CF73C43CF78282F9F
:10BA800000D14561CF78482F00D10561761C082E82
:10BA9000E4D34460F0BD0000F0B5144C002801DA96
:10BAA000E36900E06368420D120185B2C0F30157FB
:10BAB0009540C0F30346032F05D0C2020AD50322E6
:10BAC000B240934307E023F07062636823F0706331
:10BAD000636002E0AB4343F0706201B12A43002887
:10BAE00001DAE261F0BD6260F0BD000000000140DB
:10BAF0004161704770B5154A0E464FF48074014697
:10BB0000146000BF00BF00BF4FF40070106000BFA2
:10BB100000BF00BF4FF4006010604310136000BF0F
:10BB200000BF00BF094D2D1F286000BF00BF00BF30
:10BB3000084600F025F900BF00BF00BF304600F006
:10BB40001FF900BF00BF00BF2C6070BD141401407E
:10BB500030B511494FF480750D6000BF00BF00BFC4
:10BB60000D4C4FF40072241F226000BF00BF00BFC5
:10BB70004FF400620A6053100B6000BF00BF00BFAB
:10BB8000226000BF00BF00BF00F0FAF800BF00BF96
:10BB900000BF256030BD00001414014008B501212C
:10BBA000102000F08DF80121202000F089F80D49C7
:10BBB0004FF48070086010208DF8030003208DF88A
:10BBC0000200C020ADF8000069460748FFF712FFE9
:10BBD0004FF47060ADF80000024869461038FFF776
:10BBE00009FF08BD101401400010014070B50F237B
:10BBF000C47801780122F4B1144C2468457804F427
:10BC0000E064C4F5E064240AC4F10406E3408478E7
:10BC1000B5401C402C4301F1E021230181F80034A0
:10BC2000007800F01F018A404009800000F1E02008
:10BC3000C0F8002170BD01F01F008240480980005B
:10BC400000F1E020C0F8802170BD00000CED00E0A4
:10BC50000249084302490860704700000000FA05E5
:10BC60000CED00E0024A11400143024801607047B8
:10BC700080FFFF1F08ED00E0044A0029516901D050
:10BC8000014300E081435161704700000010024011
:10BC9000044A0029D16901D0014300E08143D16108
:10BCA0007047000000100240044A0029116901D0C9
:10BCB000014300E081431161704700000010024021
:10BCC000044A0029916901D0014300E08143916158
:10BCD0007047000000100240044A0029D16801D0DA
:10BCE000014300E08143D160704700000010024032
:10BCF00030B51F494A6812F00C031E4A03D0042BCA
:10BD000001D0082B21D002604A680F231A4C03EAA5
:10BD10001212A35C0268DA4042604B68072505EA0C
:10BD20001323E35C22FA03F383604B6805EAD32311
:10BD3000E35CDA40C2604968032303EA9131231FC0
:10BD4000595CB2FBF1F1016130BD4A684B6802F405
:10BD500070124FF0020413F4803F04EB924202D0C1
:10BD60004B689B0301D5054B00E0024B5A43CAE7E1
:10BD70000010024000127A005000002000093D002F
:10BD800070B50D4B00211C15DA141D1F1A60060634
:10BD900001D52C6000E01C6000BF00BF00BF2A601E
:10BDA0004006000E00BF00BF00BF491CC9B20829F1
:10BDB000ECD32A602C6070BD141401400CB5002136
:10BDC000264801910091026842F4803202604FF4EB
:10BDD000A063026802F400320092019A521C0192A0
:10BDE000009A12B9019A9A42F3D10268920333D5AC
:10BDF000012100911A490A6842F010020A600A689B
:10BE000022F003020A600A6842F002020A604168F6
:10BE1000416041684160416841F48061416041682E
:10BE200021F47C114160416841F4E81141600168EE
:10BE300041F08071016001688901FCD5416821F001
:10BE400003014160416841F0020141604168C1F372
:10BE500081010229FAD10CBD00910CBD00100240F5
:10BE60000020024070B5012000F014FB0D4C206052
:10BE7000022000F00FFB6060032000F00BFBA060CD
:10BE8000256840F6381340F6E21240F2A2319D4296
:10BE900004DB6368934201DB884201DA002070BD55
:10BEA000012070BD00000020FFF7E6BA0F4810B572
:10BEB000016841F00101016041680D4A1140416093
:10BEC00001680C4A11400160016821F48021016081
:10BED000416821F4FE0141604FF41F018160FFF7CA
:10BEE0006DFF05494FF00060086010BD0010024072
:10BEF0000000FFF8FFFFF6FE08ED00E001F02CB8AF
:10BF0000C943018270470029018802D041F0010134
:10BF100001E021F0010101807047002930F8441F41
:10BF200002D041F4004101E0C1F30E0101807047ED
:10BF30004B4910B5884202D10121C41486E0B0F10A
:10BF4000804F09D0474988420DD101210220FFF7D7
:10BF5000ABFE0021022064E001210846FFF7A4FEA9
:10BF6000002101205DE04049884206D101210420E2
:10BF7000FFF79AFE0021042053E03C49884206D195
:10BF800001210820FFF790FE0021082049E03849F0
:10BF9000884206D101211020FFF786FE00211020E3
:10BFA0003FE03449884206D101212020FFF77CFE82
:10BFB0000021202035E03049884202D1012144147B
:10BFC00044E02E49884202D10121CC043EE02C49B4
:10BFD000884202D101210C0538E02A49884202D169
:10BFE00001214C0532E02849884206D10121402038
:10BFF000FFF75AFE0021402013E02449884206D171
:10C0000001218020FFF750FE0021802009E0204917
:10C0100088420AD1841501212046FFF745FE002100
:10C020002046BDE81040FFF73FBE1A49884202D1C2
:10C0300001210C040AE01849884202D101214C0474
:10C0400004E0164988420AD101218C042046FFF7FA
:10C0500043FE2046BDE810400021FFF73DBE10BD65
:10C06000002C01400004004000080040000C00408B
:10C07000001000400014004000340140004C01401A
:10C08000005001400054014000180040001C0040D6
:10C0900000200040004001400044014000480140B1
:10C0A00002460020138A92890B4202EA010202D062
:10C0B000002A00D001207047002A828901D00A435B
:10C0C00000E08A438281704730B5028C22F0010281
:10C0D0000284028C8388048B22F0020224F0730510
:10C0E0000C882C430D8915434A882A43114DA842D8
:10C0F0000BD0114DA84208D0104DA84205D0104DCC
:10C10000A84202D00F4DA8420DD122F008054A895D
:10C1100023F440732A4322F004058A882A438D8938
:10C120001D43CB892B4383800483C9888186028485
:10C1300030BD0000002C01400034014000400140AF
:10C14000004401400048014070B5028C22F010020A
:10C150000284028C8488038B0D8823F4E6464FF614
:10C16000FF7303EA052535430E8922F0200203EA16
:10C17000061616434A8803EA02123243104EB042B2
:10C1800002D0104EB04215D122F080064A8924F424
:10C19000406403EA0212324322F040068A8803EA2E
:10C1A000021232438E8903EA86062643CC8903EACB
:10C1B0008404344384800583C9880187028470BD68
:10C1C000002C01400034014070B5028C22F48072D2
:10C1D0000284028C8488838B0D8823F073031D43B3
:10C1E00022F400730E894FF6FF7202EA06261E4300
:10C1F0004B8802EA03233343104EB04202D0104E64
:10C20000B04215D123F400664B8924F4405402EA6D
:10C210000323334323F480668B8802EA03233343EA
:10C220008E8902EA06162643CC8902EA04143443B6
:10C2300084808583C9888187038470BD002C014078
:10C240000034014070B5028C22F480520284048CC8
:10C250008288838B0D8823F4E6464FF6FF7303EA4A
:10C260000525354324F400560C8903EA043434438D
:10C270004E8803EA06362643094CA04202D0094CF8
:10C28000A04205D122F480448A8903EA8212224323
:10C2900082808583C988A0F84010068470BD0000A4
:10C2A000002C01400034014030B502881B4B1C4C6F
:10C2B00098420DD0A0420BD0B0F1804F08D0194D5C
:10C2C000A84205D0184DA84202D0184DA84203D16B
:10C2D00022F070054A882A43154DA84206D0154D14
:10C2E000A84203D022F44075CA882A4302808A8873
:10C2F00082850A88028598420AD0A04208D00E4A58
:10C30000904205D00D4A904202D00D4A904201D190
:10C31000097A01860121818230BD0000002C014094
:10C32000003401400004004000080040000C0040C0
:10C330000010004000140040004001400044014053
:10C340000048014010B5FFF78DFD084C606340B117
:10C35000012805D1FFF72EFAA063FFF773FAE06317
:10C3600010BDFFF7C3FA206410BD000000000020DC
:10C3700070B5134C40F225552946204601F087F947
:10C3800001280CD12946204601F053F90D4D2868AB
:10C3900028B1204601F008FA2968C0B28847082170
:10C3A000204601F06DF9012808D10821204601F04E
:10C3B0003DF92046BDE8704001F0F6B970BD0000BF
:10C3C000004C00408800002070B5134C40F2255509
:10C3D0002946204601F05BF901280CD12946204668
:10C3E00001F027F90D4D286828B1204601F0DCF94D
:10C3F0002968C0B288470821204601F041F9012888
:10C4000008D10821204601F011F92046BDE870400E
:10C4100001F0CAB970BD0000005000409400002037
:10C4200010B501218CB00846FFF726FC104C2046C1
:10C43000FFF788F80F4800900F480021CDE901016F
:10C440001020CDE903018020059040000690800077
:10C450000790202008900002CDE909016946204696
:10C46000FFF7FAF801212046FFF760F80CB010BD85
:10C47000080002404C2401401C010020044931F80E
:10C480001000AA2801D90120704700207047000041
:10C490001C010020102803D2024931F81000704717
:10C4A000002070471C01002010B586B0FFF7B8FFD0
:10C4B00001214802FFF704FC01210420FFF700FCE2
:10C4C00001210820FFF7FCFB01211020FFF7F8FBFA
:10C4D00000248DF81740FF20ADF8140005A950483E
:10C4E000FFF788FA0320ADF8140005A94D48FFF7BF
:10C4F00081FA3F20ADF8140005A94B48FFF77AFAFE
:10C5000001208DF804008DF805004FF46020CDE97E
:10C51000020400941020454C8DF810006946204616
:10C52000FEF7EEFE0723012209212046FEF70CFF4D
:10C530000723022208212046FEF706FF07230322D5
:10C540000F212046FEF700FF072304220E2120467C
:10C55000FEF7FAFE0723052219462046FEF7F4FEF1
:10C560000622072311462046FEF7EEFE07231A4651
:10C5700005212046FEF7E8FE072308220421204675
:10C58000FEF7E2FE0723092203212046FEF7DCFE28
:10C5900007230A2202212046FEF7D6FE07230B229C
:10C5A00001212046FEF7D0FE07230C220021204661
:10C5B000FEF7CAFE0D22072311462046FEF7C4FEF1
:10C5C00007230E220C212046FEF7BEFE07230F2272
:10C5D0000B212046FEF7B8FE072310220A21204631
:10C5E000FEF7B2FE01212046FEF772FE0121204631
:10C5F000FEF764FE2046FEF7E1FE2046FEF779FED8
:10C600000028FAD12046FEF7E8FE2046FEF76AFE33
:10C610000028FAD101212046FEF7D5FE06B010BD54
:10C6200000080140000C01400010014000240140BE
:10C6300008B501212020FFF743FB0A48016821F0DB
:10C64000800101608020ADF8000002208DF802001A
:10C6500010208DF80300034869460C38FFF7CAF92B
:10C6600008BD00000C1401401CB54FF480639942D2
:10C6700013D29A4211D21E238DF800308DF801108A
:10C68000090A8DF80210110A8DF803208DF80410A4
:10C690006B460322072100F013FF1CBD1CB50129C6
:10C6A00022D806228DF80020002211B101290BD0DA
:10C6B00012E08DF801208DF80220FF218DF8031083
:10C6C00003218DF8041007E08DF801208DF8022079
:10C6D0008DF803208DF804206B460322072100F01B
:10C6E000EFFE1E2000F038FF1CBD00001CB501F25B
:10C6F000FF3240F2FF739A421BD2002902DC00BFD6
:10C70000C1F100014FF0200289B28DF800208DF8B0
:10C7100001104FEA11218DF8021003DA41F00401F3
:10C720008DF802106B464FF003024FF0050100F048
:10C73000C7FE1CBDF8B5494C2088400403D50E2126
:10C740000320FFF743F92088800403D50D2103203F
:10C75000FFF73CF92088000403D50F210320FFF7E1
:10C7600035F92088C00403D50C210320FFF72EF9EA
:10C7700004258DF803502078394E00060AD5802014
:10C78000ADF8000069463046FFF734F90721002074
:10C79000FFF71CF9207840060AD54020ADF80000CC
:10C7A00069463046FFF726F906210020FFF70EF90B
:10C7B000207880060AD52020ADF800006946304672
:10C7C000FFF718F905210020FFF700F92078C006CF
:10C7D0000AD51020ADF8000069463046FFF70AF987
:10C7E00004210020FFF7F2F820781E4E00070AD53A
:10C7F0000820ADF8000069463046FFF7FBF803213A
:10C800000220FFF7E3F82078400709D5ADF8005083
:10C8100069463046FFF7EEF802210846FFF7D6F8E2
:10C82000207880070AD50220ADF80000694630461E
:10C83000FFF7E0F801210220FFF7C8F82078C007D1
:10C840000AD00120ADF8000069463046FFF7D2F863
:10C8500000210220FFF7BAF8F8BD0000AC0000206C
:10C86000000801400010014007484FF4804101607A
:10C870004900016005480121016002210160082191
:10C880000160102101607047100801401014014040
:10C8900008B501216520FFF713FA01211048FFF7C1
:10C8A000FBF8FFF7E1FF10208DF8030003208DF85F
:10C8B00002008003ADF8000069460A48FFF79AF8C5
:10C8C0001B20ADF8000069460748FFF793F84FF4C6
:10C8D0004050ADF8000069460448FFF78BF808BDEA
:10C8E000000430000008014000140140001801401D
:10C8F000FFF7CEBF38B501212020FFF7E1F94FF453
:10C900007040ADF8000048208DF8030069460D48DE
:10C91000FFF770F80C4C04212046FFF7E9F80121DD
:10C920004020FFF7CDF90420ADF8000002208DF87B
:10C93000020010208DF8030069462046FFF75AF8E0
:10C9400038BD0000001401400018014000B500206F
:10C9500000F008F8024800210170417000BD00009D
:10C96000B4000020F0B5074640210320FFF7C2F8CD
:10C9700000244FF4AF7600210520FFF7BBF82146D5
:10C980000620FFF7B7F800253846FFF7E1F83046F4
:10C99000FEF78CFE6D1CEDB2102DF5D3641CE4B2D5
:10C9A000402CE8D3F0BD000010B5FFF7F7F83D4C80
:10C9B000402363616420FEF76CFE23616420FEF770
:10C9C00068FE00210846FFF795F800210120FFF7D7
:10C9D00091F87B210220FFF78DF800210320FFF75B
:10C9E00089F800210420FFF785F800210520FFF7D2
:10C9F00081F800210620FFF77DF800210720FFF7CE
:10CA000079F800210820FFF775F800210920FFF7C9
:10CA100071F800210A20FFF76DF800210B20FFF7C5
:10CA200069F800210C20FFF765F800210D20FFF7C1
:10CA300061F800210E20FFF75DF800210F20FFF7BD
:10CA400059F800211320FFF755F800211420FFF7B3
:10CA500051F800211520FFF74DF800211620FFF7AF
:10CA600049F800211720FFF745F800211820FFF7AB
:10CA700041F82C211020FFF73DF824211220FFF768
:10CA800039F8F8211120FFF735F802210120FFF7CE
:10CA900031F8002000F067F8FFF758FF8020206190
:10CAA00010BD0000001001402DE9FC47002589461B
:10CAB000824600950195002A01DA5242012506249A
:10CAC000DFF84C800A276E4692FBF7F007FB102038
:10CAD000303030551046FEF785FB4146FEF744FBEB
:10CAE000FEF789FB020003D0641E64B2002CEBDA6F
:10CAF0001DB1641E64B22D2030553219494650468E
:10CB000000F008F8C4F10700C0B2BDE8FC870000DF
:10CB100000002041F0B5002415460E4607460329C3
:10CB200001D8102F01D90020F0BD42210320FEF7CB
:10CB3000E1FF39460520FEF7DDFF3007010E062034
:10CB4000FEF7D8FF4FF4AF7608E000BFFFF700F81C
:10CB50003046FEF7ABFD641CE4B26D1C287800285B
:10CB6000F4D12046F0BD08B1FB2100E0F8211120EE
:10CB7000FEF7C0BF2DE9F8434FF430414FF000609D
:10CB8000FFF770F84FF4C060FFF762F85C484FF4AD
:10CB90007A7101250068B0FBF1F0B0F1807F7DD2A1
:10CBA00020F07F414FF0E020491E4161554AF021BD
:10CBB00082F8141D00268661072707618DF8016041
:10CBC000514C8DF802608DF8035020784FF0060824
:10CBD000C00704D08DF800806846FFF707F820787A
:10CBE000800704D58DF800706846FEF7FFFF2078B7
:10CBF000400705D508208DF800006846FEF7F6FFCF
:10CC00002078000705D509208DF800006846FEF75A
:10CC1000EDFF2078C00605D50A208DF80000684693
:10CC2000FEF7E4FF208810F4787F05D017208DF8F8
:10CC300000006846FEF7DAFF208810F47C4F05D02C
:10CC400028208DF800006846FEF7D0FF1C208DF8E4
:10CC500000008DF801508DF802608DF80350684691
:10CC6000FEF7C4FF1D208DF8000002208DF80100A2
:10CC70008DF802608DF803506846FEF7B7FF234831
:10CC8000007870B125208DF8000004208DF8010097
:10CC90008DF802608DF80350684600E02FE0FEF743
:10CCA000A5FF1B48007860B134208DF800000520F6
:10CCB0008DF801008DF802608DF803506846FEF78C
:10CCC00095FF1448007860B135208DF800000320EE
:10CCD0008DF801008DF802608DF803506846FEF76C
:10CCE00085FF0C208DF800008DF801808DF8026022
:10CCF0008DF803506846FEF779FFBDE8F883FEE73C
:10CD0000600000200FE000E0AC0000207400002074
:10CD1000800000208C0000202DE9FF410121082027
:10CD2000FEF7CEFF01210420FEF7B2FF224840218A
:10CD300001608021016085150560411501601820A2
:10CD40008DF80F0003208DF80E004FF47070ADF8D1
:10CD50000C00194803A91038FEF74CFE174F38464F
:10CD6000FFF7E6F8002445F6C0500226ADF80400AF
:10CD7000ADF80060ADF80240ADF806408DF808400F
:10CD800069463846FFF790FA0D486021018001217D
:10CD90004180848042F6E061C180068144818581C2
:10CDA000C48101213846FFF7AEF801213846FFF76C
:10CDB000B4F8BDE8FF810000100C014000080040FD
:10CDC000F002002010B5FFF771F8FFF7D3FEFFF770
:10CDD00091FDFFF769FB00F0FFF9FFF7E5FDFFF7B5
:10CDE00087FDFFF799FFFFF7A5FC00F023F8BDE8EA
:10CDF0001040FFF71DBC0000032814D8002912D0F2
:10CE0000094B01221A54094A42F82010084A22F814
:10CE10001010103222F81010083A090C22F81010E5
:10CE2000103222F81010704798000020E002002015
:10CE3000C00000202DE9F041444C88B0207830B982
:10CE4000607820B9A07810B9E07800287AD0012164
:10CE50000220FEF71DFF3E4F3846FFF769F84720D6
:10CE60000025ADF810004FF6FF76ADF81460ADF870
:10CE70001250ADF816508DF8185004A93846FFF737
:10CE800013FAADF80850334D2020ADF800002868A3
:10CE90004FF48038404500D33046ADF80600207886
:10CEA00018B169463846FFF70FF96868404500D366
:10CEB0003046ADF80600607818B169463846FFF78D
:10CEC00043F9A868404500D33046ADF80600A07885
:10CED00018B169463846FFF777F9E868404500D24F
:10CEE0000646ADF80660E07818B169463846FFF7A7
:10CEF000A9F91F213846FFF703F8207820B1012255
:10CF000002213846FFF7D8F8607820B101220421C9
:10CF10003846FFF7D1F8A07820B101220821384621
:10CF2000FFF7CAF8E07820B1012210213846FFF758
:10CF3000C3F8012211463846FFF7BEF801213846F2
:10CF4000FEF7E1FF08B0BDE8F08100009800002086
:10CF500000040040E00200202DE9F047734C01215D
:10CF60002046FFF79DF84FF6FF7648B10121204695
:10CF7000FEF7C6FF6E48016831440160BDE8F087E6
:10CF80000221A2462046FFF78BF8DFF8A481002794
:10CF900008F1040808F1180408F10809A4F10805CB
:10CFA00060B302215046FEF7ABFFDFF880A1208876
:10CFB0000AF1340A70B92888C0B9B8F8000028808E
:10CFC000B9F8000020805B48016809B1002088475B
:10CFD000208840B1BAF800103144AAF80010208827
:10CFE000401E2080CAE728880028C7D0BAF8001061
:10CFF0002A881144AAF800102F80BFE70421504668
:10D00000FFF74EF860B304215046FEF779FFDFF8D2
:10D010001CA160880AF1380A70B96888C0B9B8F8EC
:10D0200002006880B9F8020060804348016809B1D5
:10D0300001208847608840B1BAF800103144AAF84E
:10D0400000106088401E608098E76888002895D0AE
:10D05000BAF800106A881144AAF800106F808DE7B2
:10D0600008215046FFF71CF860B308215046FEF730
:10D0700047FFDFF8B8A0A0880AF13C0A70B9A88879
:10D08000C0B9B8F80400A880B9F80400A0802B4803
:10D09000016809B102208847A08840B1BAF80010A1
:10D0A0003144AAF80010A088401EA08066E7A88836
:10D0B000002897D0BAF80010AA881144AAF80010E6
:10D0C000AF805BE710215046FEF7EAFF002889D0C9
:10D0D00010215046FEF714FFDFF850A0E0880AF157
:10D0E000400A70B9E888C0B9B8F80600E880B9F815
:10D0F0000600E0801248016809B103208847E088F3
:10D1000040B1BAF800103144AAF80010E088401E7F
:10D11000E08033E7E888002896D0BAF80010EA8863
:10D120001144AAF80010EF8028E700000004004036
:10D13000BC0000209C000020A0000020A4000020D3
:10D14000A800002000290CD038B1012807D00228FF
:10D1500008D0032805D1044802E0044800E0044850
:10D16000016070470348FBE7A80000209C000020F6
:10D17000A0000020A400002010B501218CB00846BA
:10D18000FEF77AFD124C2046FEF7DCF9114800212B
:10D19000CDE900011020CDE902018020CDE9041085
:10D1A0008001CDE90810069107910A916946204651
:10D1B000FEF752FA012202212046FEF745FA054801
:10D1C00001228021001F00F053FA0CB010BD0000B6
:10D1D0001C000240044800402DE9F04F87B00121B7
:10D1E00044F20500FEF76CFD4FF40075ADF80050F9
:10D1F0000326A34C8DF802604FF018098DF80390B8
:10D2000069462046FEF7F6FB2715ADF800704FF093
:10D21000040A8DF803A069462046FEF7EBFB994807
:10D220000024DFF8648200680190ADF80C400C2007
:10D23000ADF80840ADF80E00ADF81440ADF8185048
:10D24000ADF80A40ADF81040ADF81640ADF81A4000
:10D2500005A9404600F0F3F901A9404600F04EFA56
:10D260000121404600F0FAF98848007828B10122EF
:10D2700040F22551404600F029FA0121C804FEF78A
:10D2800007FD01211120FEF71BFDADF80070BB4624
:10D290007F4F8DF80260B0468DF80390694638469E
:10D2A000FEF7A8FBF814ADF8000056468DF803A071
:10D2B00069463846FEF79EFB7648DFF8DCA10C276E
:10D2C00000680190ADF80840ADF80C40ADF814408E
:10D2D000ADF81850ADF80A40ADF81040ADF80E703A
:10D2E000ADF81640ADF81A4005A9504600F0A7F970
:10D2F00001A9504600F002FA0121504600F0AEF9B3
:10D300006648007828B1012240F22551504600F0CD
:10D31000DDF901210805FEF7BBFC01213120FEF7F4
:10D32000CFFC4FF48050ADF800008DF80280C2466B
:10D33000C8468DF8039069465548FEF75BFBADF88B
:10D3400000608DF8036069465548FEF753FB554869
:10D35000DFF8549105A900680190ADF80840ADF8D8
:10D360000C40ADF81440ADF81850ADF80A40ADF8D7
:10D370001040ADF80E70ADF81640ADF81A404846B2
:10D3800000F05DF94021484600F050F901A94846F7
:10D3900000F0B4F90121484600F060F943480078F4
:10D3A00028B1012240F22551484600F08FF90121B1
:10D3B0000820FEF785FC01214020FEF781FC0121B9
:10D3C0008804FEF765FCADF800B08DF802A08DF87A
:10D3D0000380DFF8DC8069464046FEF70BFB4FF424
:10D3E0000060ADF800008DF8036069464046FEF726
:10D3F00001FB3048016821F400410160016821F41B
:10D40000804101604FF48040DFF8A880ADF8000053
:10D410001026A8F10C088DF8036069464046FEF717
:10D42000E9FAF002ADF800008DF803606946404665
:10D43000FEF7E0FA20480190ADF80840ADF814403E
:10D44000ADF81850ADF80A40ADF80C40ADF81040FA
:10D45000ADF81640ADF81A40184CADF80E7005A99D
:10D46000204600F0ECF801A9204600F047F9012120
:10D47000204600F0F3F8FFF77FFE07B0BDE8F08F1D
:10D4800000080140780000200038014074000020AE
:10D490000010014084000020004C0040800000206B
:10D4A0000014014090000020005000408C0000203B
:10D4B000000C01400C18014040420F0000480040A1
:10D4C0002DE9F04F224D2E786C78771EBC423CD06F
:10D4D0000EB9132C39D0AB461E4EC4EBC40505EB78
:10D4E000450909EB0605FF276F70AF70E8702971D9
:10D4F00047186A713A44B246D7B2C4EBC406052055
:10D50000002206EB46065644891E0DE006EB000895
:10D5100013F802C088F801C013F802C0401C674429
:10D52000521C80B2FFB2D2B28A42EFDB0544FB4309
:10D530006B70401C0AF80900641CE0B28BF8010013
:10D54000142802D100208BF80100BDE8F08F000004
:10D55000B70000203C0100204FF4FA5206E0002101
:10D56000401E00BF491C89B29142FAD30028F6D16F
:10D57000704706E00021401E00BF491C89B20829FF
:10D58000FAD30028F6D1704770B5134C40F22555F8
:10D590002946204600F07BF801280CD12946204678
:10D5A00000F047F80D4D286828B1204600F0FCF83F
:10D5B0002968C0B288470821204600F061F8012898
:10D5C00008D10821204600F031F82046BDE870401F
:10D5D00000F0EAB870BD0000003801407C00002077
:10D5E00070B5114C40F225552946204600F04FF801
:10D5F000012809D12946204600F01BF8204600F0FA
:10D60000D3F8C0B2FDF7EEFE0821204600F038F84E
:10D61000012808D10821204600F008F82046BDE87E
:10D62000704000F0C1B870BD00480040C94301809F
:10D6300070470A0A01219140C9430180704710B523
:10D64000038A4FF2FF0213400A884C8822438C88D9
:10D65000C9880C4322431A43028210BD00298189E4
:10D6600002D041F4005101E021F400518181704762
:10D67000002A828A01D00A4300E08A4382827047EE
:10D680000246002012880A4200D00120704730B5BF
:10D6900001F01F0201240025C1F3421304FA02F233
:10D6A000012B0FD0022B0FD0838A4FEA1121008863
:10D6B000134204FA01F400EA040001D000B101258C
:10D6C000284630BD8389F0E7038AEEE710B5C1F341
:10D6D000421301F01F040121A140012B07D0022BAE
:10D6E00007D01430002A026805D00A4304E00C3049
:10D6F000F8E71030F6E78A43026010BD30B5044603
:10D70000008A85B00D464CF6FF710840E988014358
:10D710002182A1894EF6F3100140A8882A8910437E
:10D720006A890A431043A081A08A4FF6FF4108404E
:10D73000A9890143A1826846FEF7DAFA19488442B2
:10D7400001D1039800E00298A189090400EBC0010F
:10D7500001EB0010296801D5490000E08900B0FB09
:10D76000F1F06422B0FBF2F109010B096FF018052A
:10D770006B4300EB8300A3891D044FF0320306D5F1
:10D7800003EBC000B0FBF2F000F0070005E003EB94
:10D790000010B0FBF2F000F00F000843208105B04C
:10D7A00030BD0000003801408088C0F30800704799
:10D7B00002E008C8121F08C1002AFAD1704770475A
:10D7C000002001E001C1121F002AFBD170470000B8
:10D7D00002210020FFF710FB9B490020FFF7B2FC5D
:10D7E000FFF7F0FA00210320FEF758FF0021062082
:10D7F000FEF754FF954C0720FEF740FEA061052080
:10D80000FEF73CFE206102210020A269FFF74CF9DF
:10D81000032100202269FFF747F9A0690128EAD116
:10D8200020690028E7D14FF47A752846294600F090
:10D8300011F940F2B630FFF78FFE854FDFF810A2E6
:10D84000323740F28A2B4FF4FA78C5F100097E4254
:10D85000022100202268FFF727F9022106206268D2
:10D86000FFF722F900210320A268FFF71DF9626B80
:10D870007AB3012AECD103210520A26BFFF714F93A
:10D8800003210820D4F83C20FFF70EF9606B48B361
:10D890000128DDD12A4640F2DF310420FEF7E4FE04
:10D8A0002A4682210520FEF7DFFEA06BC8B30128BF
:10D8B00075D0022874D0032873D0042801D005281D
:10D8C000C6D13046314600F0C5F86420FFF744FE6B
:10D8D000BEE7FFE703210020FFF7E6F80321084633
:10D8E000226CD1E72A464FF4DC710420FEF7BCFE1F
:10D8F0002A4640F2AA210520FEF7B6FE206C88B128
:10D9000001281FD0022809D0032821D004281FD0C5
:10D91000052820D006281ED0072899D15146584600
:10D9200040E01EE04A48FA38014600F093F84FF410
:10D93000C870FFF711FE2846294600F08BF840F228
:10D940001450C3E75146584600F084F8A020BDE7C4
:10D950003046314601E03846394600F07BF8404613
:10D96000B4E7E06B012810D0022811D003281FD0A3
:10D97000042820D0052824D0062825D0072829D01F
:10D9800008282AD0404641460CE02846294609E0AE
:10D990004946284600F05EF84FF4E17023E027E0A6
:10D9A00031E041E000F056F80120FFF7E2FD4FE7DB
:10D9B0002946484601E04946284600F04BF8A02099
:10D9C00011E02946484601E04946284600F042F861
:10D9D0005A2008E04946284601E02946484600F01A
:10D9E00039F84FF4BE70FFF7B7FD29460846D9E76E
:10D9F0003846394600F02EF84FF4C870FFF7ACFDFA
:10DA00004946284609E03846394600F023F84FF4E5
:10DA1000C870FFF7A1FD2946484600F01BF84FF4F7
:10DA2000E170FFF799FD4CE73846394600F012F8EF
:10DA30004FF4C870FFF790FD4946284600F00AF8F9
:10DA40004FF4E17042E7000045C3000800000020E9
:10DA500076FDFFFF70B54FF48066104C721ED54303
:10DA60006B1CB042C4E9110101DB626402E0A84210
:10DA700000DC6364B14201DBA26402E0A94200DC85
:10DA8000A36434F8440F01B20120FEF72FFEA088F2
:10DA9000BDE8704001B20220FEF728BE0000002061
:10DAA000C0DA0008000000201C010000B0D7000808
:10DAB000DCDB00081C010020E4050000C0D70008E2
:10DAC000000000000000000000000000D00700007F
:10DAD000D1070000D1070000D1070000D1070000E6
:10DAE000D1070000D1070000D1070000D1070000D6
:10DAF000D10700000000000000000000000000004E
:10DB00000000000000000000000000000204060801
:10DB100000000000010203040102030406070809D3
:10DB200000A24A04000000000000000001020304FB
:10DB3000060708090000000000C201000000000004
:10DB400000000000004B000000000000000000008A
:10DB500000C2010000000000000000000000000002
:10DB600000000000000000000000000000000000B5
:10DB700000000000000000000000000000000000A5
:10DB80000000000000000000000000000000000095
:10DB90000000000000000000000000000000000085
:10DBA0000000000000000000000000000000000075
:10DBB0002003000000000000000000000000000042
:10DBC0000000000000000000000000000000000055
:0CDBD00000000000000000000000000049
:040000050800B1310D
:00000001FF
